:1000000012C02CC02BC02AC029C028C027C026C0BF
:1000100025C024C023C023C021C020C01FC01EC0D3
:100020001DC01CC01BC011241FBECFE5D4E0DEBF25
:10003000CDBF10E0A0E6B0E0EEE5F2E002C0059032
:100040000D92AA36B107D9F720E0AAE6B0E001C0C8
:100050001D92AC38B207E1F7DCD0FFC0D1CF1F92C0
:100060000F920FB60F9211242F933F934F935F93EC
:100070006F937F938F939F93AF93BF93EF93FF9370
:100080008CB18093000080528F3518F490E080E0AE
:1000900069D0FF91EF91BF91AF919F918F917F9127
:1000A0006F915F914F913F912F910F900FBE0F90E5
:1000B0001F901895599890BD89B988E98AB986E842
:1000C00080BD089580FF0BC0C09A81FF0AC0979A37
:1000D00082FF09C0969A83FF08C0959A0895C09838
:1000E000F4CF9798F5CF9698F6CF9598089586B364
:1000F0008170879982608699846085998860089567
:10010000CF93DF93B8988F988E988D98AB9AAC9ACE
:10011000EEDF90E1899FE0011124AC98AC9AE7DF13
:10012000AC988C2BDF91CF910895AD98E9CFCF9308
:10013000C82FB89A8F9A8E9A8D9AAB98AC9A82955E
:100140008F70C0DFAC98AC9A8C2FBCDFAC98EDDF21
:1001500087FDFDCFCF910895AD98E9CFAD9AE7CF58
:10016000AD9ACECFCF93DF93EC018991811103C07B
:10017000DF91CF910895F2DFF8CF6295660F660F99
:10018000607C860F8068E8CF81E0E6DF8FE39FE147
:100190000197F1F700C00000089582E0DDDF8FE3F2
:1001A0009FE10197F1F700C000000895CF93B89A3E
:1001B0008F9A8E9A8D9AA49AA59AA39A8FE59AEE11
:1001C0000197F1F700C00000AD98AC98AB98C3E080
:1001D000AC9A83E077DFAC988FE19EE40197F1F76A
:1001E00000C00000C150A1F7AC9A82E06BDFAC9870
:1001F0008FE99FE00197F1F700C0000088E2ACDFD3
:1002000088E0AADF81E0A8DF86E0A6DF8CE0CF915E
:10021000A3CFCCDFC2DF80E690E0A4DF2FEF37EA88
:1002200081E6215030408040E1F700C00000ACDFA3
:1002300087E690E03FDF789482E087BB88BB92E05E
:100240002FEF33ED80E3215030408040E1F700C0D4
:0E025000000088B3892788BBF3CFF894FFCF56
:0A025E004156522055415254000051
:00000001FF
